{
  "contractName": "Faucet",
  "abi": [
    {
      "inputs": [],
      "name": "numOfFunders",
      "outputs": [
        {
          "internalType": "uint256",
          "name": "",
          "type": "uint256"
        }
      ],
      "stateMutability": "view",
      "type": "function",
      "constant": true
    },
    {
      "inputs": [],
      "name": "owner",
      "outputs": [
        {
          "internalType": "address",
          "name": "",
          "type": "address"
        }
      ],
      "stateMutability": "view",
      "type": "function",
      "constant": true
    },
    {
      "stateMutability": "payable",
      "type": "receive",
      "payable": true
    },
    {
      "inputs": [],
      "name": "addFunds",
      "outputs": [],
      "stateMutability": "payable",
      "type": "function",
      "payable": true
    },
    {
      "inputs": [
        {
          "internalType": "uint256",
          "name": "withdrawAmount",
          "type": "uint256"
        }
      ],
      "name": "withdraw",
      "outputs": [],
      "stateMutability": "nonpayable",
      "type": "function"
    },
    {
      "inputs": [],
      "name": "getAllFunders",
      "outputs": [
        {
          "internalType": "address[]",
          "name": "",
          "type": "address[]"
        }
      ],
      "stateMutability": "view",
      "type": "function",
      "constant": true
    },
    {
      "inputs": [
        {
          "internalType": "uint8",
          "name": "index",
          "type": "uint8"
        }
      ],
      "name": "getFundersAtIndex",
      "outputs": [
        {
          "internalType": "address",
          "name": "",
          "type": "address"
        }
      ],
      "stateMutability": "view",
      "type": "function",
      "constant": true
    }
  ],
  "bytecode": "0x608060405234801561001057600080fd5b50336000806101000a81548173ffffffffffffffffffffffffffffffffffffffff021916908373ffffffffffffffffffffffffffffffffffffffff160217905550610852806100606000396000f3fe6080604052600436106100595760003560e01c80632e1a7d4d146100655780636fbbb55d1461008e5780638da5cb5b146100b9578063a26759cb146100e4578063af7f2c9b146100ee578063f388b2661461011957610060565b3661006057005b600080fd5b34801561007157600080fd5b5061008c600480360381019061008791906104ab565b610156565b005b34801561009a57600080fd5b506100a36101ec565b6040516100b091906105c8565b60405180910390f35b3480156100c557600080fd5b506100ce6102e6565b6040516100db91906105f9565b60405180910390f35b6100ec61030a565b005b3480156100fa57600080fd5b5061010361042a565b6040516101109190610623565b60405180910390f35b34801561012557600080fd5b50610140600480360381019061013b9190610677565b610430565b60405161014d91906105f9565b60405180910390f35b8067016345785d8a000081106101a1576040517f08c379a000000000000000000000000000000000000000000000000000000000815260040161019890610727565b60405180910390fd5b3373ffffffffffffffffffffffffffffffffffffffff166108fc839081150290604051600060405180830381858888f193505050501580156101e7573d6000803e3d6000fd5b505050565b6060600060015467ffffffffffffffff81111561020c5761020b610747565b5b60405190808252806020026020018201604052801561023a5781602001602082028036833780820191505090505b50905060005b6001548110156102de576003600082815260200190815260200160002060009054906101000a900473ffffffffffffffffffffffffffffffffffffffff1682828151811061029157610290610776565b5b602002602001019073ffffffffffffffffffffffffffffffffffffffff16908173ffffffffffffffffffffffffffffffffffffffff168152505080806102d6906107d4565b915050610240565b508091505090565b60008054906101000a900473ffffffffffffffffffffffffffffffffffffffff1681565b6000339050600260008273ffffffffffffffffffffffffffffffffffffffff1673ffffffffffffffffffffffffffffffffffffffff16815260200190815260200160002060009054906101000a900460ff1661042757600060016000815480929190610375906107d4565b9190505590506001600260008473ffffffffffffffffffffffffffffffffffffffff1673ffffffffffffffffffffffffffffffffffffffff16815260200190815260200160002060006101000a81548160ff021916908315150217905550816003600083815260200190815260200160002060006101000a81548173ffffffffffffffffffffffffffffffffffffffff021916908373ffffffffffffffffffffffffffffffffffffffff160217905550505b50565b60015481565b6000600360008360ff16815260200190815260200160002060009054906101000a900473ffffffffffffffffffffffffffffffffffffffff169050919050565b600080fd5b6000819050919050565b61048881610475565b811461049357600080fd5b50565b6000813590506104a58161047f565b92915050565b6000602082840312156104c1576104c0610470565b5b60006104cf84828501610496565b91505092915050565b600081519050919050565b600082825260208201905092915050565b6000819050602082019050919050565b600073ffffffffffffffffffffffffffffffffffffffff82169050919050565b600061052f82610504565b9050919050565b61053f81610524565b82525050565b60006105518383610536565b60208301905092915050565b6000602082019050919050565b6000610575826104d8565b61057f81856104e3565b935061058a836104f4565b8060005b838110156105bb5781516105a28882610545565b97506105ad8361055d565b92505060018101905061058e565b5085935050505092915050565b600060208201905081810360008301526105e2818461056a565b905092915050565b6105f381610524565b82525050565b600060208201905061060e60008301846105ea565b92915050565b61061d81610475565b82525050565b60006020820190506106386000830184610614565b92915050565b600060ff82169050919050565b6106548161063e565b811461065f57600080fd5b50565b6000813590506106718161064b565b92915050565b60006020828403121561068d5761068c610470565b5b600061069b84828501610662565b91505092915050565b600082825260208201905092915050565b7f43616e6e6f74207769746864726177206d6f7265207468616e20302e3120657460008201527f6865720000000000000000000000000000000000000000000000000000000000602082015250565b60006107116023836106a4565b915061071c826106b5565b604082019050919050565b6000602082019050818103600083015261074081610704565b9050919050565b7f4e487b7100000000000000000000000000000000000000000000000000000000600052604160045260246000fd5b7f4e487b7100000000000000000000000000000000000000000000000000000000600052603260045260246000fd5b7f4e487b7100000000000000000000000000000000000000000000000000000000600052601160045260246000fd5b60006107df82610475565b91507fffffffffffffffffffffffffffffffffffffffffffffffffffffffffffffffff8203610811576108106107a5565b5b60018201905091905056fea2646970667358221220868c101ca9ba34c8be6ad53ebe1a0fa9fed343b618c5c33480e458449551117564736f6c63430008130033",
  "immutableReferences": {},
  "source": "// SPDX-License-Identifier: MIT\npragma solidity >=0.4.22 <0.9.0;\n\nimport \"./Owned.sol\";\nimport \"./IFaucet.sol\";\n\ncontract Faucet is Owned, IFaucet {\n    uint public numOfFunders;\n    mapping(address => bool) private funders;\n    mapping(uint => address) private lutFunders;\n\n    modifier limitWithdraw(uint withdrawAmount) {\n        require(\n            withdrawAmount < 100000000000000000,\n            \"Cannot withdraw more than 0.1 ether\"\n        );\n        _;\n    }\n\n    receive() external payable {}\n\n    function addFunds() external payable {\n        address funder = msg.sender;\n\n        if (!funders[funder]) {\n            uint index = numOfFunders++;\n            funders[funder] = true;\n            lutFunders[index] = funder;\n        }\n    }\n\n    function withdraw(\n        uint withdrawAmount\n    ) external limitWithdraw(withdrawAmount) {\n        payable(msg.sender).transfer(withdrawAmount);\n    }\n\n    function getAllFunders() external view returns (address[] memory) {\n        address[] memory _funders = new address[](numOfFunders);\n\n        for (uint i = 0; i < numOfFunders; i++) {\n            _funders[i] = lutFunders[i];\n        }\n\n        return _funders;\n    }\n\n    function getFundersAtIndex(uint8 index) external view returns (address) {\n        return lutFunders[index];\n    }\n}\n",
  "sourcePath": "/Users/liuqian/workspace/faucet/contracts/FaucetContract.sol",
  "compiler": {
    "name": "solc",
    "version": "0.8.19+commit.7dd6d404.Emscripten.clang"
  },
  "schemaVersion": "3.4.13",
  "updatedAt": "2023-05-04T07:18:58.757Z",
  "networkType": "ethereum",
  "devdoc": {
    "kind": "dev",
    "methods": {},
    "version": 1
  },
  "userdoc": {
    "kind": "user",
    "methods": {},
    "version": 1
  }
}